:020000020000FC
:040000000C9422003A
:04000C000C944C0004
:100040000C945F000FEF0DBF08E00EBFF89400E8BE
:100050000093610004E00093610000E004BD03E050
:1000600005BD01E000936E000FEF07B90FEF0AB96D
:1000700000E004B90FEF05B903E000936B0001E065
:100080000093680000E00093C10040E020E07FEFB3
:1000900078940E948000FDCF0F930FB70F9353B158
:1000A000652F60FF0E946F0061FF0E94780048B9D1
:1000B00001E000931B000F910FBF0F9118950F9354
:1000C0000FB70F93F894139578942A3061F01D338D
:1000D00011F410E023950F910FBF0F9118954395E0
:1000E000403119F440E020E008950E948000089516
:1000F000403021F04A95089540E008954FE008957A
:10010000F1E0EEE0E20FF11D04910BB908953FFC20
:080110005B4F39127F4F7F6F36
:00000001FF
