:100000000C9434000C9451000C9451000C94510049
:100010000C9451000C9451000C9451000C9451001C
:100020000C9451000C9451000C9451000C9451000C
:100030000C9451000C9451000C9451000C945100FC
:100040000C9408010C9451000C9451000C94510034
:100050000C9451000C9451000C9451000C945100DC
:100060000C9451000C94510011241FBECFEFD8E026
:10007000DEBFCDBF11E0A0E0B1E0EEE8F5E002C0E8
:1000800005900D92A230B107D9F721E0A2E0B1E0CE
:1000900001C01D92A330B207E1F70E9476000C94D4
:1000A000C5020C940000ECE7F0E08081806480835E
:1000B000EAE7F0E0808187608083808180688083C8
:1000C0000895ECE7F0E09081987F8770892B80831A
:1000D000EAE7F0E080818064808380917A0086FD89
:1000E000FCCF809178009091790008950E94530090
:1000F0000E94DF000E94C6000E94F80080E00E947B
:100100006100BC0180E090E00E94CA012EE438E367
:1001100041E650E40E94580220E030E046E954E411
:100120000E942F010E949B01CB010E94F30081E0FD
:100130000E946100BC0180E090E00E94CA012BE0B7
:100140003DE244E35DE30E9458020E949B01862F3A
:1001500090E005960E94D60082E00E946100BC01FA
:1001600080E090E00E94CA0120E13FE34CE75DE3BC
:100170000E9458020E949B01862F0E9405018FE376
:100180009CE90197F1F700C00000B8CF8AB1886000
:100190008AB9E0EBF0E01082808183628083E1EB3A
:1001A000F0E0108280818760808308958F3F910501
:1001B00019F010F08FEF90E08093B400089584B1AF
:1001C000826084B9E0E8F0E0808182688083E1E8C1
:1001D000F0E080818A6180838FE39CE990938700BF
:1001E00080938600089590938900809388000895F5
:1001F0008AB180628AB914BC81E085BDEEE6F0E088
:1002000080818160808378940895809300010895AF
:100210001F920F920FB60F9211248F939F9380918C
:1002200002018F5F8093020180910201803410F0FF
:10023000109202019091020180910001981720F420
:100240008BB180628BB903C08BB18F7D8BB99F91CD
:100250008F910F900FBE0F901F9018955058BB278D
:10026000AA270E9446010C941E020E94100238F038
:100270000E94170220F039F49F3F19F426F40C94E1
:100280000D020EF4E095E7FB0C940702E92F0E94A3
:100290002F0258F3BA17620773078407950720F0F7
:1002A00079F4A6F50C9451020EF4E0950B2EBA2FBA
:1002B000A02D0B01B90190010C01CA01A00111246C
:1002C000FF27591B99F0593F50F4503E68F11A1618
:1002D000F040A22F232F342F4427585FF3CF4695A9
:1002E00037952795A795F0405395C9F77EF41F16CB
:1002F000BA0B620B730B840BBAF09150A1F0FF0F95
:10030000BB1F661F771F881FC2F70EC0BA0F621F80
:10031000731F841F48F4879577956795B795F79570
:100320009E3F08F0B0CF9395880F08F09927EE0F05
:100330009795879508950E94370288F09F5798F007
:10034000B92F9927B751B0F0E1F0660F771F881FDA
:10035000991F1AF0BA95C9F714C0B13091F00E94F4
:100360005102B1E008950C945102672F782F88272D
:10037000B85F39F0B93FCCF3869577956795B3951B
:10038000D9F73EF490958095709561957F4F8F4F8A
:100390009F4F0895E89409C097FB3EF4909580958F
:1003A000709561957F4F8F4F9F4F9923A9F0F92F3B
:1003B00096E9BB279395F695879577956795B795B9
:1003C000F111F8CFFAF4BB0F11F460FF1BC06F5F9F
:1003D0007F4F8F4F9F4F16C0882311F096E911C0B1
:1003E000772321F09EE8872F762F05C0662371F0D2
:1003F00096E8862F70E060E02AF09A95660F771FE6
:10040000881FDAF7880F9695879597F9089597F9D9
:100410009F6780E870E060E008959FEF80EC0895AA
:1004200000240A94161617061806090608950024D3
:100430000A9412161306140605060895092E03944D
:10044000000C11F4882352F0BB0F40F4BF2B11F4C1
:1004500060FF04C06F5F7F4F8F4F9F4F089557FD20
:100460009058440F551F59F05F3F71F04795880F22
:1004700097FB991F61F09F3F79F0879508951216B9
:1004800013061406551FF2CF4695F1DF08C0161665
:1004900017061806991FF1CF869571056105089416
:1004A0000895E894BB2766277727CB0197F908952D
:1004B0000E946B020C941E020E94100238F00E94EF
:1004C000170220F0952311F00C9407020C940D02F2
:1004D00011240C9452020E942F0270F3959FC1F3D5
:1004E000950F50E0551F629FF001729FBB27F00DE2
:1004F000B11D639FAA27F00DB11DAA1F649F662737
:10050000B00DA11D661F829F2227B00DA11D621F85
:10051000739FB00DA11D621F839FA00D611D221F3F
:10052000749F3327A00D611D231F849F600D211D23
:10053000822F762F6A2F11249F5750409AF0F1F0A6
:1005400088234AF0EE0FFF1FBB1F661F771F881F0F
:1005500091505040A9F79E3F510580F00C9407023E
:100560000C9452025F3FE4F3983ED4F3869577955E
:100570006795B795F795E7959F5FC1F7FE2B880FB5
:0E058000911D9695879597F90895F894FFCFF1
:02058E008000EB
:00000001FF
