:020000020000FC
:040000000C9422003A
:04000C000C945A01F5
:100040000C9455010FEF0DBF18E01EBFC0F9A4B00E
:10005000999282F88090289A2098299A21982A9A31
:1000600022980FEF07B9249A2C98239A2B98259A57
:100070002D980FEF0AB90E944D0107E000936B0025
:1000800001E0009368007894BB27F0E0ECE4EB0F0C
:10009000B4912227332740E0C0E88C2ECC27A0E083
:1000A00090E080E070E060E050E0C0E01C2EC1E035
:1000B0000C2EC0E03C2EC1E02C2EC0E07C2EC0E017
:1000C0006C2EC0E05C2EC0E04C2ED0E040FF0C94C3
:1000D000A0000C94A50000C02233C1F7222787FCA2
:1000E0001B9A87FE2B983395323081F73327C9E06E
:1000F0005C130E948F035527C5E06C130E94910387
:100100006627C9E07C130E9493037727C5E08C1310
:100110000E9495038827C9E09C130E9497039927A2
:10012000C2E0AC130E94A603AA27D0CF41FF0C94D3
:100130009B000C94B40042FF0C94A0000C94C800E7
:1001400043FF0C94D6000C94270141FF0C94AA00A5
:100150000C94BE0042FF0C94AF000C94CD0043FF02
:100160000C94E8000C942E0142FF0C94B9000C94FE
:10017000D00043FF0C94F4000C94320142FF0C9425
:10018000C3000C94D30043FF0C9401010C9435017F
:1001900043FF0C9409010C94660043FF0C94110179
:1001A00043FF0C94180143FF0C942001C0E88C2EEF
:1001B0000E944B020E9466020E9481020E949C02E1
:1001C000D0FF2D98D0FD0E94430186CF0C9466008D
:1001D00088240E94B7020E94D2020E94ED020E946F
:1001E00008037ACF0C9466002B9A0E9423030E9486
:1001F0003E030E9459030E94740388246DCF0C941F
:10020000660088240E9481020E949C0265CF0C94A3
:100210006600CCE00E94B7020E94D2025DCF0C942F
:1002200066000E9459030E94740356CF0C94660026
:1002300088240E944B020E9466024ECF0C946600F6
:100240000E94ED020E94080347CF0C9466000E94B2
:1002500023030E943E0340CF0C946600D0E03CCFC5
:100260000C946600D1E00C94660088242B9A2D9A99
:100270000E944B020E9466020E9481020E949C0220
:100280002BCF0C9466007A120895691208955812C3
:100290000895471208954BE0089505E005BD03E673
:1002A00006BD01E000936E00089513E616BDA89AFE
:1002B000239518950F930FB70F9340FF0C94670188
:1002C0000C94760141FF0C9467010C94800142FF6D
:1002D0000C946C010C94940143FF0C94A8010C94B1
:1002E000040241FF0C9476010C948A0142FF0C94A5
:1002F0007B010C94990143FF0C94B3010C941102FF
:1003000042FF0C9485010C949E0143FF0C94BB01A9
:100310000C94190242FF0C948F010C94A30143FF2B
:100320000C94C3010C94210243FF0C94D0010C9453
:100330002C0243FF0C94DD010C942C0243FF0C941F
:10034000EA010C942C0243FF0C94F7010C942C024C
:1003500003B100FF41E003B101FF42E003B102FF3E
:1003600043E00C942C0203B100FF40E003B102FF14
:1003700047E00C942C0203B102FF45E003B101FFFA
:1003800040E00C942C0203B100FF0C94560403B11E
:1003900001FF0C946D0403B102FF46E00C942C02A3
:1003A00003B102FF41E003B100FF0C94100503B15B
:1003B00001FF0C948B050C942C0203B102FF48E062
:1003C00003B100FF0C94AC0403B101FF0C94C3040F
:1003D0000C942C0203B102FF40E003B100FF0C9427
:1003E000300403B101FF0C9444040C942C0203B1BB
:1003F00002FF44E003B100FF0C94DD0403B101FFF0
:100400000C94F6040C942C0203B102FF49E003B1F2
:1004100000FF0C94840403B101FF0C9498040C9425
:100420002C0203B102FF42E003B100FF4AE00C944A
:100430002C0203B102FF42E003B101FF49E00C943A
:100440002C0203B102FF0C9427020C942C02D0E082
:1004500040E02D980C942C02D89A0F910FBF0F9169
:100460001895309A319A329A339A349A359A1C9A5E
:100470004A9A4B9A4C9A4D9A4E9A4F9A0895B52F94
:10048000F0E0ECE4EB0FB491B6FD2C9AB6FF2C989B
:10049000B8B94F9A08955A985B985C985E985F989F
:1004A000B72FF0E0ECE4EB0FB4915A985B985C98AE
:1004B0005E985F98B6FF2C98B6FD2C9AB8B95D9AF5
:1004C0005A985B985C985E985F9808955A985B98E4
:1004D0005D985E985F98B82FF0E0ECE4EB0FB49174
:1004E0005A985B985D985E985F98B6FF2C98B6FD19
:1004F0002C9AB8B95C9A5A985B985D985E985F9808
:1005000008955A985C985D985E985F98B92FF0E0CE
:10051000ECE4EB0FB4915A985C985D985E985F9804
:10052000B6FF2C98B6FD2C9AB8B95B9A5A985C988D
:100530005D985E985F9808955B985C985D985E986A
:100540005F98BA2FF0E0ECE4EB0FB4915B985C9805
:100550005D985E985F98B6FF2C98B6FD2C9AB8B956
:100560005A9A5B985C985D985E985F9808955D983C
:100570005C985A985E985F98B02DF0E0ECE4EB0F31
:10058000B4915D985C985A985E985F98B6FF2C98E5
:10059000B6FD2C9AB8B95B9A5D985C985A985E98AB
:1005A0005F9808955B985D985C985E985F98B12D10
:1005B000F0E0ECE4EB0FB4915B985D985C985E988A
:1005C0005F98B6FF2C98B6FD2C9AB8B95A9A5B98EA
:1005D0005D985C985E985F9808955C985B985A98CF
:1005E0005E985F98B22DF0E0ECE4EB0FB4915C986C
:1005F0005B985A985E985F98B6FF2C98B6FD2C9A37
:10060000B8B95D9A5C985B985A985E985F9808951F
:100610005A985D985B985E985F98B32DF0E0ECE493
:10062000EB0FB4915A985D985B985E985F98B6FF0F
:100630002C98B6FD2C9AB8B95C9A5A985D985B983C
:100640005E985F9808955C985B985A985E985F985A
:10065000B42DF0E0ECE4EB0FB4915C985B985A9801
:100660005E985F98B6FF2C98B6FD2C9AB8B95D9A43
:100670005C985B985A985E985F9808955D985B982F
:100680005A985E985F98B52DF0E0ECE4EB0FB491CA
:100690005D985B985A985E985F98B6FF2C98B6FD67
:1006A0002C9AB8B95C9A5D985B985A985E985F9856
:1006B00008955C985D985A985E985F98B62DF0E022
:1006C000ECE4EB0FB4915C985D985A985E985F9853
:1006D000B6FF2C98B6FD2C9AB8B95B9A5C985D98D9
:1006E0005A985E985F9808955C985B985D985E98BC
:1006F0005F98B72DF0E0ECE4EB0FB4915C985B9859
:100700005D985E985F98B6FF2C98B6FD2C9AB8B9A4
:100710005A9A5C985B985D985E985F980895539597
:10072000D5CC6395D3CC7395D1CC8395CFCCC2E097
:10073000AC130E94A403C3E09C130E94A403992756
:10074000AA270E94A803C2CC9395C0CCA395BECC87
:10075000C0E0C31167C052C00394B8CC1394B6CCA8
:10076000C1E03C120E94BC03C2E02C120E94C203F2
:10077000C1E02C2E3324AACCC9E02C120E94C20363
:10078000222402C02394A2CCC2E02C120E94CA03ED
:1007900033249CCC33949ACCC9E00C120E94AC0355
:1007A0000024C3E01C120E94AE031124C1E00C2EF1
:1007B0008DCCC9E00C120E94AC030024C3E01C12D3
:1007C0000E94AE031124C1E00C2E80CCC9E00C12B3
:1007D0000E94AC030024C2E01C120E94AE0311244C
:1007E000C1E00C2E73CCC2E01C12F0CFC8E00C129A
:1007F0000E94AC03C1E00C2E1124B2CFC22DC13037
:10080000C9F0C23081F3C330A9F0C430F1F0C53073
:1008100089F0C630D1F0C73069F0C83059F0C9301E
:10082000A1F054CCC22DC03029F0C13071F0C230DB
:1008300009F04CCCC3E01C12AFCFC1E00C120E94F7
:10084000AC03C1E00C2E11248BCFC3E01C12B1CF3E
:10085000C0E00C120E94AC03C1E00C2E112480CF2A
:10086000C9E07C130C94370477270C943A047395F1
:100870000C942C02C5E08C130C94410488270C9432
:100880002C0283950C942C02C0E07C130C94500431
:1008900079E0C0E08C130C94530485E00C942C0296
:1008A0007A950C942C028A950C942C02C2E0AC131D
:1008B0000C946204C3E09C130C9462049927AA2749
:1008C0000C942C02C9E09C130C946A049927A395FC
:1008D0000C942C0293950C942C02C0E0AC130C9455
:1008E0007C04C0E09C130C947904A2E093E00C9487
:1008F0002C029A950C942C02C0E09C130C94790461
:1009000099E0AA950C942C02C9E04C120C948B042B
:1009100044240C948E0443940C942C02C5E05C1285
:100920000C94950455240C942C0253940C942C0292
:10093000C0E04C120C94A604C9E04C2EC0E05C123E
:100940000C94A904C5E05C2E0C942C024A940C94DF
:100950002C025A940C942C02C2E07C120C94B80421
:10096000C3E06C120C94B804662477240C942C0217
:10097000C9E06C120C94C004662473940C942C028D
:1009800063940C942C02C0E07C120C94D404C0E05C
:100990006C120C94D104C2E07C2EC3E06C2E0C943B
:1009A0002C026A940C942C02C0E06C120C94D104BA
:1009B000C9E06C2E7A940C942C02C0E03C120C948A
:1009C000ED04C9E02C120C94EA042224C1E03C2E70
:1009D0000C942C0223940C942C02C2E02C120C9444
:1009E000EA04C1E02C2E33240C942C02C0E03C120B
:1009F0000C940405C1E02C120C940D05C2E02C2EC1
:100A0000C1E03C2E0C942C02C0E02C120C940D057D
:100A1000C9E02C2E3A940C942C022A940C942C02AB
:100A2000C0E0C3110C9438050C942305C2E01C12DD
:100A30000C947D05C8E00C120C946905C1E00C2EE5
:100A400011240C942C02C22DC130D9F0C23071F3A4
:100A5000C330B9F0C43011F1C53099F0C630F1F0AF
:100A6000C73079F0C83069F0C930C1F00C942C025D
:100A7000C22DC03031F0C13089F0C23011F00C9479
:100A80002C02C3E01C120C945B05C1E00C120C9408
:100A90006905C1E00C2E11240C942C02C3E01C1239
:100AA0000C946F05C0E00C120C946905C1E00C2E8B
:100AB00011240C942C02C9E00C120C94690500243A
:100AC000C3E01C120C946C051124C1E00C2E0C9494
:100AD0002C0203940C942C0213940C942C02C9E065
:100AE0000C120C9469050024C3E01C120C946C05D4
:100AF0001124C1E00C2E0C942C02C9E00C120C94B1
:100B000069050024C2E01C120C946C051124C1E09C
:100B10000C2E0C942C02C0E0C3110C94C0050C9454
:100B2000AB05C0E0C1110C94A205C1E0C0110C944A
:100B30009F05C8E00C2EC2E01C2E0C942C020A94D7
:100B40000C942C02C0E00C120C949F05C9E00C2EF2
:100B50001A940C942C02C22DC130D9F0C23009F382
:100B6000C330B9F0C43079F1C53099F0C63059F1CD
:100B7000C73079F0C83069F0C93029F10C942C02E3
:100B8000C22DC03031F0C130F1F0C23011F00C9400
:100B90002C02C0E0C1110C94DA05C1E0C0110C9424
:100BA000D705C1E00C2EC3E01C2E0C942C020A9435
:100BB0000C942C02C0E00C120C94D705C9E00C2E4A
:100BC0001A940C942C02C0E0C1110C94F405C1E0FD
:100BD000C0110C94F105C0E00C2EC3E01C2E0C9447
:100BE0002C020A940C942C02C0E00C120C94F10517
:0A0BF000C9E00C2E1A940C942C029C
:00000001FF
