:020000020000FC
:100000000FEF07B905E005BD10E030E00E940F00DA
:1000100033953A30D9F730E0139518B9F7CF26E089
:10002000A89BFECF01E005BB2A95D1F708950FEFFD
:100030000AB900EC0BB900E004B903E005B940E0EF
:1000400019990E9429001A990E9431000E943C00CF
:10005000F7CF0E9437004395403110F040E00895FB
:1000600008950E9437004A95DAF74FE0089524E694
:1000700000002A95E9F70895F0E0E42F04910BB908
:100080000895C0F9A4B0999282F880908883C6A19F
:02009000868E5A
:00000001FF
