S00C00004C6162342E73726563D5
S11300000C9434000C9451000C9451000C94510045
S11300100C9451000C9451000C9451000C94510018
S11300200C9451000C9499000C9451000C945100C0
S11300300C9451000C9451000C9451000C945100F8
S11300400C94D2000C9451000C9451000C94510067
S11300500C9451000C9409010C9451000C9451001F
S11300600C9451000C94510011241FBECFEFD8E022
S1130070DEBFCDBF11E0A0E0B1E0E8E4F2E002C0F1
S113008005900D92A231B107D9F721E0A2E1B1E0C8
S113009001C01D92A531B207E1F70E9486000C94BD
S11300A022010C94000086E680937C00EAE7F0E0ED
S11300B08FE88083808180648083089514BC85E008
S11300C085BD81E080936E001092B00092E0909321
S11300D0B1008093700008958FEF8AB98BB987B906
S11300E018B884B18C7F84B985B1836085B984B133
S11300F08C6084B984B1806284B985B18F7D85B9FF
S11301000E9453000E945E00789408950E946C003F
S11301108091140188B99091130180911401891779
S113012020F485B1806285B9F3CF85B18F7D85B91F
S1130130EFCF1F920F920FB60F9211248F939F93BC
S1130140EF93FF9385B1837F85B9E09113018E2FDF
S11301508F70E0911301E295EF709091120191116B
S11301600AC0E82FF0E0EE5FFE4F80818BB985B1C5
S1130170846085B908C0F0E0EE5FFE4F80818BB9E2
S113018085B1886085B99091120181E089278093B7
S11301901201FF91EF919F918F910F900FBE0F90DD
S11301A01F9018951F920F920FB60F9211242F9340
S11301B08F939F9393B183B18270292F217090FD07
S11301C00DC090910101992349F090911401992354
S11301D029F09091140191509093140181110DC054
S11301E090910001992349F0909114019F3F29F0C7
S11301F0909114019F5F90931401209301018093C7
S113020000019F918F912F910F900FBE0F901F901F
S113021018951F920F920FB60F9211248F93EF939C
S1130220FF938091790080931301EAE7F0E08081E5
S113023080648083FF91EF918F910F900FBE0F9098
S10B02401F901895F894FFCFFC
S11302480101C0F9A4B0999282F880908883C6A16C
S1050258868E8C
S9030000FC
