:100000000C9434000C9451000C9451000C94510049
:100010000C9451000C9451000C9451000C9451001C
:100020000C9451000C9451000C9451000C9451000C
:100030000C9451000C9451000C9451000C945100FC
:100040000C9451000C9451000C947B000C945100C2
:100050000C9451000C9451000C9451000C945100DC
:100060000C9451000C94510011241FBECFEFD8E026
:10007000DEBFCDBF11E0A0E0B1E0EEEBF2E002C0E8
:1000800005900D92AE38B107D9F721E0AEE8B1E0A6
:1000900001C01D92A039B207E1F70E94BF000C9485
:1000A0005D010C94000087E690E09093C50080937A
:1000B000C40088E98093C10086E08093C2007894F0
:1000C00008959091C00095FFFCCF8093C6000895DD
:1000D0000F931F93CF938C01C0E003C00E94610077
:1000E000CF5FF801EC0FF11D80818111F7CFCF9127
:1000F0001F910F9108951F920F920FB60F92112426
:100100008F938091C60080938F0181E080938E0150
:100110008F910F900FBE0F901F90189580E48093E1
:100120007C0087E880937A000895ECE7F0E0908106
:10013000907F8F70892B8083EAE7F0E08081806474
:10014000808380917A0086FDFCCF80917800909129
:1001500079009695879596958795089580E091E02A
:100160000E94680085E191E00E9468008DE291E0C4
:100170000E9468008FE391E00E94680008958FEF6D
:1001800084B98AB18C608AB90E9453000E948E00A3
:100190000E94AE00C0E080918E018823E1F31092AE
:1001A0008E01C11169C080918F01813309F057C060
:1001B00080E00E949500D82F182F87E591E00E94DB
:1001C0006800D43648F089E2D89F812D11248295A9
:1001D0008F70805D0E9461001A30B8F08DECD89F5E
:1001E000912D1124969596959695989F812D112481
:1001F000869586958695880F282F220F220F820FCD
:10020000981B892F805D0E9461008DECD89F812D05
:100210001124869586958695880F982F990F990FAA
:10022000890F9D2F981B892F805D0E9461008D2F63
:100230008F7385B9D6FF04C08BB184608BB903C0BE
:100240008BB18B7F8BB9DD2324F48BB188608BB9A4
:1002500003C08BB1877F8BB90E94AE009CCF809189
:100260008F01823331F483E791E00E946800C1E09E
:1002700092CF0E94AE008FCFC13009F08CCF809119
:100280008F018F7385B980918F0186FF04C08BB178
:1002900084608BB903C08BB18B7F8BB980918F0148
:1002A000882324F48BB188608BB903C08BB1877F1E
:0E02B0008BB90E94AE00C0E06ECFF894FFCF75
:1002BE000D0A2D2D2D2D2D204D454E55202D2D2D3C
:1002CE002D2D0D0A00312E204C65657220506F7455
:1002DE00656E63696F6D6574726F0D0A00322E2044
:1002EE00456E766961722041736369690D0A005328
:1002FE00656C656363696F6E6520756E61206F70E6
:10030E0063696F6E3A20000D0A56616C6F7220643D
:10031E00656C20706F74656E63696F6D6574726F56
:10032E003A20000D0A496E74726F64757A6361200B
:0E033E00756E2063617261637465723A20000F
:00000001FF
